:200000000C94E2220C940D230C940D230C940D230C940D230C940D230C940D230C940D238C
:200020000C940D230C94D6ED0C940D230C940D230C940D230C94BC8D0C940D230C940D2394
:200040000C940D230C946B960C94E4EA0C940D230C946E3F0C940D230C940D230C940D2334
:200060000C940D230C940D230C947EE20C940D230C940D230C940D230C940D230C940D23D0
:200080000C940D230C940D230C940D23084AD73B3BCE016E84BCBFFDC12F3D6C74319ABD83
:2000A00056833DDA3D00C77F11BED9E4BB4C3E916BAAAABE000000803F05A84CCDB2D44E95
:2000C000B93836A9020C50B9918688083CA6AAAA2ABE000000803F4D383420582059205A91
:2000E0002045006563686F3A0043616E6E6F7420656E746572207375626469723A20004DD1
:200100003234004D3233202573006175746F25692E67004572726F723A006572726F7220A5
:2001200077726974696E6720746F2066696C65004E6F74205344207072696E74696E670085
:200140002F005344207072696E74696E67206279746520002E0044656C6574696F6E206672
:2001600061696C65642C2046696C653A200046696C652064656C657465643A002E006F709C
:20018000656E206661696C65642C2046696C653A200057726974696E6720746F2066696C9F
:2001A000653A20002E006F70656E206661696C65642C2046696C653A20002E006F70656E15
:2001C000206661696C65642C2046696C653A200046696C652073656C656374656400205318
:2001E000697A653A200046696C65206F70656E65643A20002E006F70656E206661696C65E7
:20020000642C2046696C653A20004E6F772066726573682066696C653A20004E6F77206416
:200220006F696E672066696C653A20002220706F73002220706172656E743A220053554251
:20024000524F5554494E452043414C4C207461726765743A2200747279696E6720746F2079
:2002600063616C6C207375622D67636F64652066696C6573207769746820746F6F206D61DA
:200280006E79206C6576656C732E204D4158206C6576656C2069733A0053442063617264D9
:2002A000206F6B006F70656E526F6F74206661696C656400766F6C756D652E696E697420CF
:2002C0006661696C656400534420696E6974206661696C006563686F3A0048617264636F68
:2002E0006465642044656661756C742053657474696E6773204C6F616465640053746F726A
:2003000065642073657474696E677320726574726965766564002044002049002020204D1F
:200320003330312050005049442073657474696E67733A00205A0020590020204D323036F9
:20034000205800486F6D65206F666673657420286D6D293A00204500205A002058002042B7
:200360000020540020204D323035205300416476616E636564207661726961626C65733A49
:2003800020533D4D696E20666565647261746520286D6D2F73292C20543D4D696E20747235
:2003A0006176656C20666565647261746520286D6D2F73292C20423D6D696E696D756D2061
:2003C0007365676D656E742074696D6520286D73292C20583D6D6178696D756D205859203A
:2003E0006A65726B20286D6D2F73292C20205A3D6D6178696D756D205A206A65726B2028D5
:200400006D6D2F73292C2020453D6D6178696D756D2045206A65726B20286D6D2F7329002D
:2004200020540020204D323034205300416363656C65726174696F6E3A20533D6163636572
:200440006C65726174696F6E2C20543D7265747261637420616363656C65726174696F6E62
:2004600000204500205A0020590020204D3230312058004D6178696D756D20416363656CB6
:2004800065726174696F6E20286D6D2F7332293A00204500205A0020590020204D32303397
:2004A0002058004D6178696D756D2066656564726174657320286D6D2F73293A0020450087
:2004C000205A0020590020204D393220580053746570732070657220756E69743A00536571
:2004E0007474696E67732053746F726564006563686F3A004572726F723A0053544F50501F
:2005000045442E20005072696E7465722073746F707065642064756520746F206572726FC8
:2005200072732E2046697820746865206572726F7220616E6420757365204D39393920744A
:200540006F20726573746172742E202854656D7065726174757265206973207265736574C4
:200560002E205365742069742061667465722072657374617274696E6729004B494C4C45D5
:20058000442E20005072696E7465722068616C7465642E206B696C6C28292063616C6C65E7
:2005A0006421006F6B00526573656E643A20002200556E6B6E6F776E20636F6D6D616E6410
:2005C0003A2022004368616E67652066696C616D656E74006C636420636F6E747261737428
:2005E0002076616C75653A20007A5F6D696E3A2000795F6D696E3A2000785F6D696E3A2002
:2006000000205A3A0020593A0020436F756E7420583A200020453A00205A3A0020593A0072
:20062000583A004649524D574152455F4E414D453A4D61726C696E2056313B20537072690E
:200640006E7465722F6772626C206D617368757020666F722067656E36204649524D574180
:2006600052455F55524C3A68747470733A2F2F6769746875622E636F6D2F4572696B5A6127
:200680006C6D2F4D61726C696E2F2050524F544F434F4C5F56455253494F4E3A312E3020C0
:2006A0004D414348494E455F545950453A4D656E64656C2045585452554445525F434F553C
:2006C0004E543A3120555549443A30303030303030302D303030302D303030302D30303065
:2006E000302D3030303030303030303030300A004D656E64656C204F66662E00426564206A
:20070000646F6E652E0020423A0020453A00543A004265642048656174696E672E00486576
:200720006174696E6720646F6E652E0020573A0020453A00543A0048656174696E672E2EB8
:200740002E002042403A0020403A00202F003A00205400202F0020423A00202F006F6B20C4
:20076000543A002569206D696E2C2025692073656300456E642066696C65206C6973740011
:20078000426567696E2066696C65206C697374004E6F206D6F76652E00526573756D696E33
:2007A00067207072696E74005761697420666F7220757365722E2E2E00536C6565702E2ECB
:2007C0002E00FFFFFF00005C4300005C43000061430000A0400000A04000004040000000CC
:2007E00000000000000000000000000000000000000000000000005C4300005C430000615A
:2008000043256920686F757273202569206D696E7574657300446F6E65207072696E7469A7
:200820006E672066696C650053544F505045442E20005072696E7465722073746F70706517
:20084000642064756520746F206572726F72732E2046697820746865206572726F72206175
:200860006E6420757365204D39393920746F20726573746172742E202854656D70657261B5
:20088000747572652069732072657365742E205365742069742061667465722072657374D2
:2008A000617274696E6729006F6B004E6F204C696E65204E756D6265722077697468206363
:2008C0006865636B73756D2C204C617374204C696E653A20004E6F20436865636B73756D36
:2008E0002077697468206C696E65206E756D6265722C204C617374204C696E653A20006366
:200900006865636B73756D206D69736D617463682C204C617374204C696E653A20004C69DA
:200920006E65204E756D626572206973206E6F74204C617374204C696E65204E756D62657B
:20094000722B312C204C617374204C696E653A20004D31313000446F6E6520736176696E41
:20096000672066696C652E006F6B004D3239002020506C616E6E657242756666657242796B
:200980007465733A20002046726565204D656D6F72793A20004D6179203131203230313789
:2009A00000436F6D70696C65643A200028676F6F647565626F742C203230313530333139DF
:2009C0005F342E376B2900207C20417574686F723A20004D6179203131203230313720311E
:2009E000373A35373A323600204C61737420557064617465643A2000312E302E30004D61E8
:200A0000726C696E0020536F66747761726520526573657400205761746368646F672052D0
:200A200065736574002042726F776E206F7574205265736574002045787465726E616C20BF
:200A4000526573657400506F7765725570007374617274002200656E717565696E672022D3
:200A6000002200656E717565696E672022006563686F3A0020746F6F206C6F6E672065789E
:200A800074727573696F6E2070726576656E7465640020636F6C6420657874727573696FF0
:200AA0006E2070726576656E746564007C3C3E5E2B3D3F2F5B5D3B2C2A225C0045313A201A
:200AC0000045303A20005A3A2000593A2000583A20004D53312C4D53322050696E730A009B
:200AE00024F404D9201BC40C5C0E9804C4095F0265077101F405F900FB04B300480487006D
:200B0000C10369005803550003034500BE023A008402310053022A00290225000402200007
:200B2000E4011C00C8011900AF0117009801140084011300710110006101100051010E0072
:200B400043010D0036010B002B010B0020010B00150109000C01090003010800FB0008005B
:200B6000F3000800EB000700E4000600DE000600D8000600D2000600CC000500C700050067
:200B8000C2000500BD000400B9000400B5000400B1000400AD000400A9000400A50003009C
:200BA000A20003009F0004009B000300980003009500020093000300900003008D00020065
:200BC0008B000300880002008600020084000300810002007F0002007D0002007B000200EE
:200BE0007900020077000100760002007400020072000100710002006F0002006D0001004F
:200C00006C0002006A00010069000200670001006600010065000100640002006200010092
:200C200061000100600001005F0002005D0001005C0001005B0001005A00010059000100C4
:200C40005800010057000100560001005500010054000100530000005300010052000100E7
:200C600051000100500001004F0001004E0000004E0001004D0001004C0001004B000000FE
:200C80004B0001004A0001004900010048000000480001004700010046000000460001000D
:200CA000450000004500010044000100430000004300010042000000420001004100000017
:200CC00041000100400001003F0000003F0001003E0000003E0001003D0000003D0001001A
:200CE0003C0000003C0000003C0001003B0000003B0001003A0000003A000100390000001A
:200D0000390001003800000038000000380001003700000037000100360000003600000015
:200D200036000100350000003500000035000100340000003400000034000100330000000C
:200D4000330000003300010032000000320000003200010031000000310000003100010001
:200D60003000000030000000300001002F0000002F0000002F0000002F0001002E000000F7
:200D80002E0000002E0001002D0000002D0000002D0000002D0001002C0000002C000000E9
:200DA0002C0000002C0001002B0000002B0000002B0000002B0001002A0000002A000000D9
:200DC0002A0000002A000100290000002900000029000000290000002900010028000000C8
:200DE0002800000028000000280000002800010027000000270000002700000027000000B6
:200E00002700010026000000260000002600000026000000260001002500000025000000A1
:200E200025000000250000002500000025000100240000002400000024000000240000008D
:200E4000240001002300000023000000230000002300000023000000230000002300010077
:200E6000220000002200000022000000220000002200000022000100210000002100000063
:200E800021000000210000002100000021000000210001002000000020000000200000004C
:200EA00020000000200000002000000020000000200001001F0000001F0000001F00000034
:200EC0001F0000001F0000001F0000001F0001001E0000001E0000001E0000001E0000001D
:200EE00024F4D43050C38E20C2A24017828B7011127A910D816CD90AA861E108C758660754
:200F0000615143061E4B5D05C145A7041A411104093D9803713931034036DB0265339102AD
:200F2000D4305402802E1D02632CEE01752AC501B028A001102781018F2564012B244B01C1
:200F4000E0223401AC211F018D200D01801FFC00841EED00971DDF00B81CD200E61BC60088
:200F6000201BBC00641AB200B219A8000A19A0006A189900D117910040178B00B51684004F
:200F800031167E00B31579003A157300C7146F0058146A00EE1366008813630025135E006E
:200FA000C7125B006C12570015125400C111510070114F0021114B00D61049008D1047002A
:200FC0004610440002104200C00F4000800F3E00420F3C00060F3B00CB0E3800930E370081
:200FE0005C0E3500270E3400F30D3200C10D3100900D3000600D2E00320D2D00050D2C00A6
:20100000D90C2B00AE0C2900850C29005C0C2700350C27000E0C2600E80B2400C40B2400E2
:20102000A00B23007D0B23005A0B2100390B2100180B2000F80A1F00D90A1E00BB0A1E0004
:201040009D0A1D00800A1D00630A1C00470A1B002C0A1B00110A1A00F7091A00DD09190091
:20106000C4091900AB091900920917007B091800630917004C0916003609160020091600ED
:201080000A091500F5081500E0081400CC081400B8081400A4081400900813007D0812005C
:2010A0006B081300580812004608120034081100230811001208110001081100F007100003
:2010C000E0071000D0071000C0071000B0070F00A107100091070E0083070F0074070F0014
:2010E00065070E0057070E0049070E003B070D002E070E0020070D0013070D0006070D00A5
:20110000F9060C00ED060D00E0060C00D4060C00C8060C00BC060C00B0060C00A4060B00CD
:2011200099060C008D060B0082060B0077060B006C060B0061060A0057060B004C060A0099
:2011400042060A0038060A002E060A0024060A001A060A001006090007060A00FD05090018
:20116000F4050900EB050900E2050900D9050900D0050900C7050900BE050900B50508005C
:20118000AD050800A50509009C050800940508008C050800840508007C0508007405080064
:2011A0006C050700650508005D050700560508004E0507004705070040050800380507003B
:2011C000310507002A050700230507001C050600160507000F0507000805060002050700E8
:2011E000FB040600F5040700EE040600E8040600E2040700DB040600D5040600CF04060076
:20120000C9040600C3040600BD040600B7040600B1040500AC040600A6040600A0040500DD
:201220009B04060095040500900406008A04050085040500800406007A0405007504050025
:20124000700405006B04050066040500610405005C04050057040500520405004D04050052
:2012600048040500430405003E0404003A04050035040500300404002C040500270404006E
:20128000230405001E0404001A04040016040500110404000D04040009040500040404006F
:2012A00000040400FC030400F8030400F4030400F0030400EC030400E8030400E403040065
:2012C000E0030400DC030400D8030400D4030400D0030400CC030400C8030300C503030047
:2012E0006563686F3A00656E6473746F7073206869743A205A00205A3A00656E6473746F4B
:201300007073206869743A20590020593A00656E6473746F7073206869743A205800205820
:201320003A00656E6473746F7073206869743A20004572726F723A004572723A204D415897
:2013400054454D50204245440054656D7065726174757265206865617465642062656420E8
:201360007377697463686564206F66662E204D415854454D50207472696767657265642050
:201380002121004572723A204D494E54454D50003A20457874727564657220737769746377
:2013A000686564206F66662E204D494E54454D5020747269676765726564202100457272F2
:2013C0003A204D415854454D50003A204578747275646572207377697463686564206F667A
:2013E000662E204D415854454D5020747269676765726564202100202D20496E76616C692F
:2014000064206578747275646572206E756D62657220210070012C0190012701B0012201C0
:20142000C0011D01F00118011002130130020E016002090190020401C002FF000003FA009B
:201440004003F5008003F000D003EB002004E6007004E100E004DC004005D700C005D20051
:201460004006CD00D006C8008007C3003008BE00F008B900C009B400B00AAF00B00BAA007F
:20148000D00CA500000EA000500F9B00C01096005012910000148C00C0158700B017820085
:2014A000B0197D00D01B7800001E730040206E0090226900F024640040275F0090295A00B8
:2014C000E02B5500102E500020304B0010324600E033410090353C0010373700703832004E
:2014E000A0392D00B03A2800A03B2300603C1E00103D1900903D1400103E0F00703E0A00C0
:20150000C03E0500003F0000504944204175746F74756E652066696E69736865642120503C
:20152000757420746865206C617374204B702C204B6920616E64204B6420636F6E737461E8
:201540006E74732066726F6D2061626F766520696E746F20436F6E66696775726174696F51
:201560006E2E6800504944204175746F74756E65206661696C6564212074696D656F757448
:201580000020403A006F6B20543A006F6B20423A00504944204175746F74756E652066617A
:2015A000696C6564212054656D706572617475726520746F6F206869676800204B643A2063
:2015C00000204B693A2000204B703A200020436C61737369632050494420002054753A2066
:2015E00000204B753A2000206D61783A2000206D696E3A200020643A200020626961733A5C
:20160000200000060900FE06018902FE20FFFE07FE06FE0000000600070106060602008045
:201620008080800080030303060103A0A0A00507070600FF5050F850F85050050909060002
:20164000FE2070A8A07028A870200608080600FF40A84810204854080507070600FF6090BD
:2016600090609890680103030602038080800207070602FF40808080808040020707060229
:20168000FF804040404040800505050600008850F850880505050600002020F820200204BB
:2016A000040602FEC0404080050101060002F8020202060200C0C004060606010010102074
:2016C00040808004060606010060909090906003060606010040C0404040E00406060601E6
:2016E000006090102040F0040606060100F020601010E005060606000010305090F81004D0
:201700000606060100F080E01010E00406060601006080E0909060040606060100F01010E8
:20172000204040040606060100609060909060040606060100609090701060020505060297
:2017400000C0C000C0C00207070602FEC0C000C040408005050506000018608060180503A6
:2017600003060001F800F8050505060000C0300830C0040707060100609010604000400574
:2017800006060600007090A8B08070050606060000205088F88888050606060000F088F059
:2017A0008888F0040606060100609080809060040606060100E090909090E0040606060104
:2017C00000F080E08080F0040606060100F080E0808080040606060100609080B0906004B7
:2017E00006060601009090F0909090030606060100E040404040E0050606060000381010D1
:2018000010906004060606010090A0C0A090900406060601008080808080F0050606060063
:201820000088D8A8A8888804060606010090D0B090909005060606000070888888887004F6
:201840000606060100E09090E080800407070601FF609090D0B06010040606060100E09086
:2018600090E09090040606060100609040209060050606060000F8202020202004060606BC
:201880000100909090909060040606060100909090F060600506060600008888A8A8D888C9
:2018A000050606060000885020205088050606060000888850202020040606060100F01033
:2018C000204080F0030606060100E080808080E004060606010080804020101003060606B6
:2018E0000100E020202020E00503030600032050880501010600FEF80202020602048040C6
:20190000040404060100709090700406060601008080E09090E004040406010070808070CA
:2019200004060606010010107090907004040406010060B0C070040606060100205040E076
:2019400040400406060601FE6090907010600406060601008080E0909090030606060100D5
:201960004000C04040E00308080601FE200060202020A0400406060601008080A0C0A09088
:20198000030606060100C040404040E0050404060000D0A8A888040404060100E090909033
:2019A000040404060100609090600406060601FEE09090E080800406060601FE709090702A
:2019C0001010040404060100A0D0808004040406010070C030E00406060601004040E0405A
:2019E0005020040404060100909090700404040601009090606005040406000088A8A85016
:201A0000040404060100906060900406060601FE909090709060040404060100F02040F05B
:201A2000030707060100204040804040200107070602FF8080808080808003070706010020
:201A40008040402040408004020206010350A0FFFFFFFFFFFFFFFFFFFFFFFFFFFFFFFFFF75
:201A6000FFFFFFFFFFFFFFFFFFFFFFFFFFFFFFFF00000006000701060606020080008080D4
:201A800080800406060601FF2070A0A070200507070600FF304840F04040F8050505060083
:201AA00000A8508850A80506060600008850F820F8200107070602FF808080008080800475
:201AC00007070601FF708060906010E0030101060105A0060707060000788494A494847833
:201AE00003050506010160A06000E00505050600002850A05028040303060100F0101004C7
:201B00000101060102F00607070600007884B4A4A48478040101060105F0040303060102A7
:201B20006090600507070600FF2020F8202000F803050506010140A02040E0030505060184
:201B400001C0204020C002020206020440800405050601FF9090B0D08005060606000078EF
:201B6000E8E8682828010101060202800202020602FE408003050506010140C04040E0030C
:201B8000050506010140A04000E0050505060000A0502850A00508080600FF40C0405070FC
:201BA0003078100508080600FF40C04050680810380508080600FFC0204030F030781004F5
:201BC00007070601002000206080906005070706000040202050708888050707060000104E
:201BE0002020507088880507070600002050205070888805070706000028502050708888DB
:201C00000507070600005000205070888805070706000020502050708888050606060000DB
:201C200078A0F0A0A0B80408080601FE60908080906020400407070601004020F080E08002
:201C4000F00407070601002040F080E080F00407070601002050F080E080F00407070601F9
:201C6000005000F080E080F00307070601008040E0404040E00307070601002040E0404024
:201C800040E003070706010040A0E0404040E0030707060100A000E0404040E0050606065D
:201CA00000007048E848487004070706010050A090D0B09090040707060100402060909052
:201CC00090600407070601002040609090906004070706010020506090909060040707061A
:201CE000010050A0609090906004070706010050006090909060050505060000885020504D
:201D0000880408080601FF1070B0B0D0D0E080040707060100402090909090600407070610
:201D20000100204090909090600407070601002050909090906004070706010050009090F0
:201D40009090600507070600001020885020202004060606010080E09090E0800406060675
:201D600001006090A0A090A004070706010040200070909070040707060100204000709010
:201D800090700407070601002050007090907004070706010050A00070909070040606069B
:201DA00001005000709090700407070601002050207090907005040406000070A8B07804D2
:201DC00006060601FE70808070204004070706010040200060B0C070040707060100204080
:201DE0000060B0C07004070706010020500060B0C070040606060100500060B0C070030729
:201E000007060100804000C04040E0030707060100204000C04040E003070706010040A044
:201E200000C04040E0030606060100A000C04040E0040707060100306010709090600407F8
:201E40000706010050A000E090909004070706010040200060909060040707060100204022
:201E600000609090600407070601002050006090906004070706010050A00060909060042C
:201E800006060601005000609090600505050600002000F8002004040406010070B0D0E0CF
:201EA0000407070601004020009090907004070706010020400090909070040707060100D7
:201EC000205000909090700406060601005000909090700409090601FE2040009090907050
:201EE00090600408080601FE8080E09090E080800408080601FE500090909070906000067A
:201F00000900FE070199032B20FFFE08FE07FE000000060000010707060200808080808026
:201F20000080030303060104A0A0A00507070600005050F850F850500507070600002070EB
:201F4000A07028702005070706000048A8502050A89005070706000040A0A040A89068013E
:201F600003030602048080800307070601002040808080402003070706010080402020203F
:201F800040800505050600018850F850880505050600012020F820200303030601FF604086
:201FA00080050101060003F80303030601FF40E04005070706000008081020408080050785
:201FC00007060000205088888850200507070600002060A0202020F80507070600007088DA
:201FE00008304080F8050707060000F808103008887005070706000010305090F810100542
:202000000707060000F880B0C8088870050707060000304080B0C88870050707060000F832
:202020000810102040400507070600007088887088887005070706000070889868081060C6
:202040000307070601FF40E0400040E0400307070601FF40E04000604080040707060100F9
:2020600010204080402010050303060002F800F80407070601008040201020408005070701
:2020800006000070881020200020050707060000708898A8B08070050707060000205088D0
:2020A00088F88888050707060000F04848704848F005070706000070888080808870050772
:2020C00007060000F04848484848F0050707060000F88080F08080F8050707060000F88021
:2020E00080F080808005070706000070888080988870050707060000888888F8888888030B
:202100000707060100E04040404040E0050707060000381010101090600507070600008888
:2021200090A0C0A09088050707060000808080808080F80507070600008888D8A8888888A5
:202140000507070600008888C8A89888880507070600007088888888887005070706000084
:20216000F08888F08080800508080600FF7088888888A87008050707060000F08888F0A07C
:20218000908805070706000070888070088870050707060000F8202020202020050707063C
:2021A00000008888888888887005070706000088888850505020050707060000888888A865
:2021C000A8D8880507070600008888502050888805070706000088885020202020050707F2
:2021E000060000F80810204080F8030707060100E08080808080E005070706000080804040
:2022000020100808030707060100E02020202020E00503030600042050880501010600FFED
:20222000F8020202060206804005050506000070087888780507070600008080B0C888C8EC
:20224000B00505050600007088808870050707060000080868988898680505050600007013
:2022600088F88070050707060000304840F04040400507070600FE7888887808887005074A
:20228000070600008080B0C88888880307070601004000C0404040E00409090601FE10003E
:2022A0003010101090906005070706000080808890E09088030707060100C04040404040FD
:2022C000E0050505060000D0A8A8A888050505060000B0C8888888050505060000708888FF
:2022E00088700507070600FEB0C888C8B080800507070600FE689888986808080505050693
:202300000000B0C880808005050506000070807008F00507070600004040F04040483005D2
:202320000505060000888888986805050506000088885050200505050600008888A8A8504B
:2023400005050506000088502050880507070600FE88889868088870050505060000F81054
:202360002040F8040707060100304020C02040300107070602008080808080808004070763
:20238000060100C02040304020C005030306000448A890000000010000000000010000002F
:2023A000000001000000000001000000000001000000000001000000000001000000000018
:2023C0000100000000000100000000000100000000000100000000000100000000000100F7
:2023E0000000000001000000000001000000000001000000000001000000000001000000D8
:202400000000010000000000010000000000010000000000010000000000010000000000B7
:20242000010000000000010000000000010000000000010000000000010000000000010096
:20244000000000000100000000000100000000000100000000000100000000000600000171
:202460000707060200800080808080800507070600FF2078A0A0A0782005070706000030D5
:202480004840E04048B005050506000088705070880508080600FF88885020F82020200154
:2024A0000707060200808080008080800508080600FF7080E0904838087003010106010781
:2024C000A00507070600007088A8C8A888700406060601017090B05000F00605050600001D
:2024E0002448904824040202060102F010040101060103F00507070600007088E8C8C88852
:2025000070050101060007F803030306010440A0400506060600002020F82020F804050576
:2025200006010360902040F0040505060103E0106010E0020202060206408005060606000E
:20254000FF888888C8B08005070706000078E8E8682828280101010602038002020206020F
:20256000FE408003050506010340C04040E00406060601016090906000F006050506000028
:2025800090482448900609090600FF40C04040E40C143C040609090600FF40C04040E814ED
:2025A00004081C0509090600FFC0204020C818287808050707060000200020204088700559
:2025C00008080600004020708888F888880508080600001020708888F8888805080806000F
:2025E000002050708888F8888805080806000048B0708888F888880508080600005000706D
:202600008888F888880508080600002050708888F888880607070600003C50909CF0909CA1
:202620000509090600FE70888080808870204005080806000040F88080F08080F80508085F
:2026400006000010F88080F08080F805080806000020F88080F08080F805080806000050FE
:20266000F88080F08080F80308080601008040E040404040E00308080601002040E0404006
:202680004040E003080806010040A0E040404040E0030808060100A000E040404040E005A1
:2026A0000707060000F04848E84848F0050808060000285088C8A8988888050808060000D0
:2026C0004020708888888870050808060000102070888888887005080806000020507088CC
:2026E0008888887005080806000028507088888888700508080600005000708888888870D4
:202700000505050600008850205088050707060000709898A8C8C8700508080600004020F8
:202720008888888888700508080600001020888888888870050808060000205000888888FB
:202740008870050808060000500088888888887005080806000010208888502020200507E7
:202760000706000080F088F0808080050707060000708890A09088B0050808060000402060
:20278000007008788878050808060000102000700878887805080806000020500070087893
:2027A000887805080806000028500070087888780507070600005000700878887805080828
:2027C000060000205020700878887806050506000078147C907C0507070600FE7088808832
:2027E0007020400508080600004020007088F880700508080600001020007088F88070057E
:2028000008080600002050007088F8807005070706000050007088F88070030808060100EF
:20282000804000C0404040E0030808060100408000C0404040E003080806010040A000C084
:20284000404040E0060A0A0600FEA4A800FC8480808084FC060A0A0600FE549400FC840464
:20286000040484FC050808060000285000B0C888888805080806000040200070888888703A
:20288000040A0A0602FE30408090909090909090040A0A0600FEC02010909090909090903E
:2028A000060707060001448C8C8480403C06070706000188C4C4840408F005050506000160
:2028C0002000F8002005080806000040F0C88888987810050808060000E0F88888888888E2
:2028E000F80505050600012030F830200508080600002070F820202020E00509090600FF13
:202900002070A8A8B8888850200509090600FFE080C0B0A8A83028280509090600FFF8A827
:202920008888888888A8F8050A0A0600FE205050505088A8A8887000000000000000000002
:202940000000000007FFFE0000000000000000000000000007000E0000000000000000005E
:20296000000000000630C6000000000000000000000000000470E200000000000000000005
:202980000000000004F0F20000000000000000000000000005F0FA00000000000000000062
:2029A0000000000005E07A00000000000000003FC0041040040602FC30F9E1E73FC7E07D09
:2029C000E0020820040F02423022121212221079E0020820040F02423022120212224075B3
:2029E000E004104004060242482204021222403DC008208005E07A7C4821040213C3C03DAF
:202A0000C010410005F0FA484820C4021222407DE010410004F0F248782024021212407D51
:202A2000E00820800470E244842014021212007FE00410400630C644842212121212101F86
:202A40008000000007000E42842212221222100F001FFFF807FFFEE3CEF9E1C1E7C7E00678
:202A6000001FFFF80000000000000000000000000000000007FFFE0000000000000000003C
:202A80000000000007000E00000000000000000000000000061F8600000000000000000076
:202AA00000000000041F8200000000000000000000000000040F020000000000000000005C
:202AC000000000000406020000000000000000000000000005801A00000000000000003F0C
:202AE000C004104005C63AFC30F9E1E73FC7E07DE002082005EF7A42302212121222107980
:202B0000E002082005EF7A423022120212224075E004104005C63A42482204021222403D10
:202B2000C008208005801A7C4821040213C3C03DC0104100040602484820C4021222407D4C
:202B4000E0104100040F0248782024021212407DE0082080041F8244842014021212007F7A
:202B6000E0041040061F8644842212121212101F8000000007000E42842212221222100F11
:202B8000001FFFF807FFFEE3CEF9E1C1E7C7E006001FFFF80000005900B02000B02000B07C
:202BA0002000B020002D2D3A2D2D004D323100496E69742E2053442063617264004E6F2077
:202BC00053442063617264004D3231004368616E67652053442063617264005072696E7430
:202BE0002066726F6D2053440053746F70207072696E7400526573756D65207072696E7499
:202C0000005061757365207072696E7400436F6E74726F6C00507265706172650054756E82
:202C20006500496E666F2053637265656E00F92E2E00F852656672657368004D61696E0082
:202C40004D3234004D3233202573004D383420582059205A204500526573746F7265206664
:202C600061696C73616665004C6F6164206D656D6F72790053746F7265206D656D6F727980
:202C8000004C434420636F6E7472617374004D6F74696F6E0054656D7065726174757265CF
:202CA000004D61696E004C434420636F6E7472617374004573746570732F6D6D0045737485
:202CC0006570732F6D6D005A73746570732F6D6D005A73746570732F6D6D0059737465706A
:202CE000732F6D6D005973746570732F6D6D005873746570732F6D6D005873746570732F81
:202D00006D6D00412D7265747261637400412D7265747261637400416D6178206500416D59
:202D20006178206500416D6178207A00416D6178207A00416D6178207900416D61782079B3
:202D400000416D6178207800416D61782078005654726176206D696E005654726176206D5E
:202D6000696E00566D696E00566D696E00566D6178206500566D6178206500566D6178204A
:202D80007A00566D6178207A00566D6178207900566D6178207900566D6178207800566D22
:202DA000617820780056652D6A65726B0056652D6A65726B00567A2D6A65726B00567A2DD4
:202DC0006A65726B005678792D6A65726B005678792D6A65726B00416363656C0041636328
:202DE000656C00436F6E74726F6C00507265686561742041425320636F6E6600507265680D
:202E000065617420504C4120636F6E66005049442D43005049442D43005049442D4400507D
:202E200049442D44005049442D49005049442D49005049442D50005049442D5000200220F8
:202E4000466163740020022046616374002002204D6178002002204D6178002002204D696C
:202E60006E002002204D696E004F6666004F6E20004F6666004F6E20004175746F74656DAF
:202E8000700046616E2073706565640046616E2073706565640042656400426564004E6F63
:202EA0007A7A6C65004E6F7A7A6C6500436F6E74726F6C0053746F7265206D656D6F727924
:202EC0000042656400426564004E6F7A7A6C65004E6F7A7A6C650046616E20737065656492
:202EE0000046616E2073706565640054656D70657261747572650053746F7265206D656D92
:202F00006F72790042656400426564004E6F7A7A6C65004E6F7A7A6C650046616E20737025
:202F20006565640046616E2073706565640054656D706572617475726500436F6F6C646F2F
:202F4000776E004D38340044697361626C65207374657070657273005072656865617420A0
:202F6000414253005072656865617420504C41004D6F76652061786973006D6F7665205A18
:202F800020757000473238205A302046313030005A20686F6D6500473238004175746F204D
:202FA000686F6D65004D61696E004D6F766520302E316D6D004D6F766520316D6D004D6F45
:202FC00076652031306D6D0050726570617265004578747275646572004D6F7665205A0088
:202FE0004D6F76652059004D6F76652058004D6F76652061786973004578747275646572F3
:20300000005A00590058004D363030004368616E67652066696C616D656E7400466C6F7774
:2030200000466C6F770046616E2073706565640046616E20737065656400426564004265BA
:2030400064004E6F7A7A6C65004E6F7A7A6C65005370656564005370656564004D61696EA1
:2030600000FFFFFFFFFFFFFFF0FFFFFFFFFFFFFFF0FFFFFFF9FFFFFFF0FFFFFFF0FFFFFFB1
:20308000F0FFFFFFE07FFFFFF0FFFFFFC03FFFFFF0FFFFFF801FFFFFF0FFFFFF000FFFFF78
:2030A000F0FFFFFE0007FFFFF0FFFFFC0003FFFFF0FFFFF80001FFFFF0FFFFF00000FFFF73
:2030C000F0FFFFE000007FFFF0FFFFC000003FFFF0FFFF8000003FFFF0FFFF0000001FFF00
:2030E000F0FFFE0000000FFFF0FFFE00000007FFF0FFFC00000007FFF0FFFC00000003FF04
:20310000F0FFF800000003FFF0FFF800000003FFF0FFF800000001FFF0FFF800000001FF0F
:20312000F0FFF800000001FFF0FFF800000001FFF0FFF800000001FFF0FFF800000001FFF3
:20314000F0FFF800000001FFF0FFF800000001FFF0FFF800000003FFF0FFF800000003FFCF
:20316000F0FFFC00000003FFF0FFFC00000007FFF0FFFE00000007FFF0FFFE0000000FFF83
:20318000F0FFFF0000001FFFF0FFFF8000001FFFF0FFFFC000003FFFF0FFFFE000007FFF5F
:2031A000F0FFFFF00001FFFFF0FFFFFC0003FFFFF0FFFFFF001FFFFFF0FFFFFFFFFFFFFF54
:2031C000F0FFFFFFFFFFFFFFF0FFFFFFFFFFFFFFF0FFFFFFFFFFFFFFF0FFFFFFFFFFFFFF4B
:2031E000F0FFFFFFFFFFFFFFF0FFFFFFFFFFFFFFF083FFFFFE0FFFFFF080FFFFFE03FFFF14
:20320000F0887FFFFE23FFFFF08C70380E7181C0708C60380E6380C03080E319C607F8C738
:203220003080E019C60380C7108C6279C6639CC7308C63F8C67118C6308E30180E7180C0E1
:20324000309E38391E79C4C4F0FFFFF9FFFFFFC7F0FFFFF9FFFFFFC7F0FFFFFFFFFFFFFFD1
:20326000F0000000000000000000000000000000000000000000000000000000000000005E
:2032800000000000000000000000000000000000000000000000000000000000000000012D
:2032A000050800FF060121023520FFFF07FF06FF090050221656808080800080153353A0D8
:2032C000A0A00257575050F850F850500257572070A07028702013355580A040A020024770
:2032E0005740A0A040A0A05025135380808012265640808080804012265680404040408080
:203300000245559060F060900255552020F82020113353604080044151F011335340E040E9
:2033200002465610102040808012365640A0A0A0A04012365640C0404040E0024656609005
:20334000106080F0024656F020601090600246562060A0F02020024656F080E010906002A1
:2033600046566080E0909060024656F0102020404002465660906090906002465660909087
:20338000701060122555C0C000C0C01136566060006040801236562040808040200343534D
:2033A000F000F012365680402020408012365640A020400040015858304898A8A8904030A0
:2033C000024656609090F09090024656E090E09090E0024656609080809060024656E09045
:2033E000909090E0024656F080E08080F0024656F080E0808080024656609080B090600241
:2034000046569090F0909090123656E040404040E002465670202020A04002465690A0C016
:20342000A0A0900246568080808080F002465690F0F090909002465690D0F0B0B0900246CA
:2034400056609090909060024656E09090E08080014757609090D0B06010024656E09090EB
:20346000E09090024656609040209060123656E0404040404002465690909090906002469A
:2034800056909090906060024656909090F0F090024656909060609090025656888850204C
:2034A0002020024656F010204080F0123656E080808080E002465680804020101012365644
:2034C000E020202020E016325240A0014151F016225280400244547090907002465680802D
:2034E000E09090E01234546080806002465610107090907002445460B0C0600246562050FC
:2035000040E0404001455560907010600246568080E09090901236564000C04040E011372C
:20352000572000202020A040024656808090E09090123656C040404040E0025454D0A8A89E
:20354000A8024454E090909002445460909060014555E090E0808001455570907010100207
:203560004454A0D0808012345460C020C00246564040E040502002445490909070123454A7
:20358000A0A0A04002545488A8A850024454906060900145559090709060024454F02040BA
:2035A000F0024757304020C0204030221656808080808080024757C02040304020C00642B5
:2035C0005250A0FFFFFFFFFFFFFFFFFFFFFFFFFFFFFFFFFFFFFFFFFFFFFFFFFFFFFFFFFFC6
:2035E000FFFFFFFF0900502216568000808080800146562070A0A070200246562050E0403D
:2036000050A002555588705070880256568850F820F82022175780808000808080024757E8
:203620007080E0907010E0173151A002565670A8C8C8A87014355560A06000E0034353505C
:20364000A050123353E02020143151E002565670E8D8E8D870173151E015335340A04012F8
:20366000355540E04000E014355540A02040E0143555C020C020C01622524080014555902F
:203680009090E08002565678E8E868282824115180112252408014355540C04040E014356A
:2036A0005540A04000E0034353A050A0024757808080A060F0200247578080A0D0102070AC
:2036C00002475780408060A0F02012365640004080A04002475740206090F09090024757DC
:2036E00020406090F0909002475760906090F0909002475750A06090F0909002475790001A
:203700006090F0909002475760906090F0909002465670A0A0F0A0B001475760908080906C
:2037200060400247574020F080E080F00247572040F080E080F00247576090F080E080F019
:203740000247579000F080E080F01237578040E0404040E01237572040E0404040E01237D0
:203760005740A0E0404040E0123757A000E0404040E00256567048E848487002475750A0F4
:2037800090D0B0909002475740206090909060024757204060909090600247576090609099
:2037A00090906002475750A0609090906002475790006090909060123353A040A002465633
:2037C00070B0B0D0D0E0024757402090909090600247572040909090906002475760909039
:2037E00090909060024757900090909090600257571020885020202002465680E09090E0D3
:20380000800246566090A0A090A002475740200070909070024757204000709090700247E1
:20382000572050007090907002475750A000709090700246565000709090700247576090B3
:203840006070909070025454F068B078113555608080604002475740200060B0C0600247CA
:203860005720400060B0C06002475760900060B0C060024656500060B0C060123757804023
:2038800000C04040E0123757204000C04040E012375740A000C04040E0123656A000C0400A
:2038A00040E0024757A040A01070906002475750A000E09090900247574020006090906058
:2038C000024757204000609090600247576090006090906002475750A000609090600246E0
:2038E000569000609090601235554000E0004002445470B0D0E0024757402000909090707C
:203900000247572040009090907002475760900090909070024656900090909070014858E8
:2039200020400090907090600147578080E090E080800147579000909070906000091200EE
:20394000FC0A01E803D720FFFD0EFD0BFD00000009000E010B0B09040080808080808080B4
:203960000000808004040409030790909090080A0A090000242424FF2424FF242424070B93
:203980000B0901FF107C929050381412927C10070A0A09010042A4A4481010244A4A84073F
:2039A0000A0A0901006090909060629488946201040409040780808080030C0C0903FF20A2
:2039C0004040808080808080404020030C0C0903FF804040202020202020404080070707CC
:2039E00009010310925438549210070707090101101010FE1010100204040904FEC0C04043
:203A000080070101090104FE020202090400C0C0070A0A0901000204040810102040408007
:203A2000070A0A09010038448282828282824438070A0A090100103050901010101010FECA
:203A4000070A0A090100384482020408102040FE070A0A090100FE0204081804020284787A
:203A6000070A0A090100040C14244484FE040404070A0A090100FE808080F8040202847868
:203A8000070A0A0901003C408080B8C482824438070A0A090100FE0204040808101010100C
:203AA000070A0A09010038448244384482824438070A0A09010038448282463A02020478FE
:203AC000020707090400C0C0000000C0C00209090904FEC0C0000000C0C0408005090909CA
:203AE0000200081020408040201008070404090102FE0000FE050909090200804020100823
:203B000010204080070A0A09010038448202040810100010070A0A09010038449AAAAAAA1B
:203B2000AA9C403C070A0A09010010282828447C44828282070A0A090100F8848284F88469
:203B4000828284F8070A0A0901003C42808080808080423C070A0A090100F884828282821B
:203B6000828284F8070A0A090100FE808080F880808080FE070A0A090100FE808080F88011
:203B800080808080070A0A09010038448280808E82824438070A0A09010082828282FE8247
:203BA00082828282050A0A090200F82020202020202020F8070A0A0901003E08080808085E
:203BC00008888870070A0A09010082848890A0D088848282070A0A09010080808080808075
:203BE000808080FE070A0A0901008282C6AA928282828282070A0A0901008282C2A2928AE9
:203C000086828282070A0A0901007C82828282828282827C070A0A090100F884828284F84A
:203C200080808080080B0B0901FF384482828282828A443A01070A0A090100F88482828425
:203C4000F890888482070A0A0901007C8280807C020202827C070A0A090100FE1010101048
:203C60001010101010070A0A09010082828282828282824438070A0A090100828282444410
:203C80004428282810070A0A0901008282828292929292AA44070A0A090100828244281050
:203CA0001028448282070A0A09010082824428101010101010070A0A090100FE020408104E
:203CC00020408080FE040C0C0903FFF080808080808080808080F0070A0A0901008040405A
:203CE00020101008040402040C0C0902FFF010101010101010101010F0070404090106109D
:203D00002844820801010900FFFF03030309030A8040200707070901007C02027E82867A06
:203D2000070A0A090100808080BCC2828282C2BC0707070901007C82808080827C070A0AA6
:203D40000901000202027A86828282867A0707070901007C8282FE80827C070A0A0901008D
:203D60001C22222020F820202020070A0A0901FD7A84848478807C82827C070A0A090100EA
:203D8000808080BCC28282828282050A0A090200600000E02020202020F8050D0D0902FD78
:203DA00018000038080808080808888870070A0A090100808080848890B0C88482050A0A2B
:203DC000090200E02020202020202020F8070707090100EC9292929292820707070901007A
:203DE000BCC282828282820707070901007C82828282827C070A0A0901FDB8C4828282C432
:203E0000B8808080070A0A0901FD3A46828282463A0202020707070901009C62424040409D
:203E2000400707070901007C82807C02827C0709090901002020FC20202020221C070707F7
:203E40000901008282828282867A070707090100828244442828100707070901008282920E
:203E60009292AA4407070709010082442810284482070A0A0901FD42422424241818109043
:203E800060070707090100FE0408102040FE060B0B0902001C20202020C0202020201C010B
:203EA0000C0C0904FF808080808080808080808080060B0B090100E0101010100C1010105C
:203EC00010E007030309010762928CFFFFFFFFFFFFFFFFFFFFFFFFFFFFFFFFFFFFFFFFFF69
:203EE000FFFFFFFFFFFFFFFFFFFFFFFF00000009000E010B0B090400808000008080808093
:203F000080808006080809010008789490A0A47840070A0A0901001C222020F8202060A284
:203F20005C070606090103827C44447C82070A0A090100828244287C107C101010010B0B9D
:203F40000904FF8080808080008080808080040B0B0902FF6090806090909060109060034E
:203F6000020209030BA0A00809090900013C4299A5A1A599423C0507070901036090709099
:203F80007800F80708080901011224489090482412060404090102FC04040405010109023F
:203FA00004F80809090900013C42B9A5BDA9A5423C060101090109FC040404090306609057
:203FC0009060070909090101101010FE10101000FE0406060901046090106080F004060673
:203FE00009010460902010906003030309030A2040800709090901FE8282828282C6BA80F9
:2040000080070A0A0901007E8A8A8A7A0A0A0A0A0A020202090404C0C00403030902FD206A
:20402000906003060609010440C0404040E00506060901047088887000F8070808090101AA
:204040009048241212244890070A0A09010040C0404042E60A121A06070A0A09010040C016
:2040600040404CF2020C101E070A0A0901006090201092660A121A06070A0A090100100098
:20408000101020408082827C070E0E0901002010080010282828447C44828282070E0E09FD
:2040A00001000810200010282828447C44828282070E0E0901001028440010282828447CC4
:2040C00044828282070D0D09010034580010282828447C44828282070D0D090100282800D2
:2040E00010282828447C44828282070E0E0901001028281010282828447C44828282070AEE
:204100000A0901001E2828284E784888888E070D0D0901FD3C42808080808080423C0824F9
:2041200018070E0E09010020100800FE808080F880808080FE070E0E09010008102000FE2B
:20414000808080F880808080FE070E0E09010010284400FE808080F880808080FE070D0DAB
:20416000090100282800FE808080F880808080FE050E0E09020040201000F820202020203D
:20418000202020F8050E0E09020010204000F82020202020202020F8050E0E09020020509F
:2041A0008800F82020202020202020F8050D0D090200505000F82020202020202020F807C6
:2041C0000A0A09010078444242F24242424478070D0D0901003458008282C2A2928A8682CA
:2041E0008282070E0E090100201008007C82828282828282827C070E0E09010008102000E9
:204200007C82828282828282827C070E0E090100102844007C82828282828282827C070DD1
:204220000D0901003458007C82828282828282827C070D0D0901002828007C828282828252
:204240008282827C07070709010182442810284482070C0C0901FF027C868A8A9292A2A2A8
:20426000C27C80070E0E0901002010080082828282828282824438070E0E0901000810202A
:204280000082828282828282824438070E0E09010010284400828282828282828244380756
:2042A0000D0D09010028280082828282828282824438070E0E090100081020008282442829
:2042C000101010101010070A0A0901008080FC828282FC808080060A0A090100384444482F
:2042E000D04844444458070B0B090100201008007C02027E82867A070B0B09010008102044
:20430000007C02027E82867A070B0B090100102844007C02027E82867A070A0A09010034A1
:2043200058007C02027E82867A070A0A0901002828007C02027E82867A070C0C0901001077
:20434000282810007C02027E82867A0707070901006C12127E90926C070A0A0901FD7C82A2
:20436000808080827C104830070B0B090100201008007C8282FE80827C070B0B09010008AD
:204380001020007C8282FE80827C070B0B090100102844007C8282FE80827C070A0A09012D
:2043A000002828007C8282FE80827C050C0C0902008040200000E02020202020F8050C0C14
:2043C0000902001020400000E02020202020F8050C0C0902002050880000E020202020204A
:2043E000F8050B0B09020050500000E02020202020F8070B0B090100483050083C4482820C
:20440000824438070A0A090100345800BCC28282828282070B0B090100201008007C828206
:204420008282827C070B0B090100081020007C82828282827C070B0B090100102844007C7A
:2044400082828282827C070A0A0901003458007C82828282827C070A0A0901002828007C32
:2044600082828282827C07090909010010381000FE001038100709090901FF027C8A8A921F
:20448000A2A27C80070B0B090100402010008282828282867A070B0B0901000810200082DA
:2044A00082828282867A070B0B090100102844008282828282867A070A0A09010028280052
:2044C0008282828282867A070E0E0901FD0408100042422424241818109060070B0B0901C5
:2044E000FE8080B8C4828282C4B88080070D0D0901FD2424004242242424181810906000B0
:20450000002100240027002A0000002200250028002B0000002000230026002900020202D3
:2045200002020202020404040404040404030303030303030301010101010101010102042A
:20454000081020408001020408102040800102040810204080804020100804020100000066
:20456000010200000000000000040307060000000000000000000000000000000002494E8B
:2045800046494E4954594E414ECDCCCC3D0AD7233C17B7D13877CC2B329595E6241FB14FBF
:2045A0000A000020410000C84200401C4620BCBE4CCA1B0E5AAEC59D74000240FB423ADB99
:2045C000EBE1F44211241FBECFEFD0E4DEBFCDBF13E0A0E0B1E0E2E1FCEE01E00BBF02C00E
:2045E00007900D92AA3BB107D9F71BBE14E1AAEBB3E001C01D92AC34B107E1F715E4C2EC9B
:20460000D5E404C02297FE010E94AEF5CA3BD107C9F70E9439ED0C94FCF50C940000A0E00A
:20462000B0E0E5E1F3E20C94CBF5EC015B016115710519F0FB0191838083F9908F2D90E0E9
:204640000E94B2F5892BC9F7FDE2FF1621F4F990EE24E39405C02BE2F21609F4F990EE2410
:204660008E0101501040C8016EE775E443E050E00E94AE25892B01F58E010E5F1F4FC801EE
:2046800061E875E445E050E00E94AE25892B19F48E01095F1F4FA114B10419F0F50111838B
:2046A0000083E0FC04C070E090E080E814C070E090E080E86FEF08C1C80166E875E443E0F9
:2046C00050E00E94AE25892B69F4A114B10429F470E090E080EC6FE7F7C02296F501D18362
:2046E000C083F6CF8824992440E050E060E070E0EF2DE053EA30A0F5F2E0EF2A8E2D90E055
:204700009C0128703070E2FE06C0232B79F50894811C911C2BC0232B19F00894810891087C
:20472000DB01CA0112E0880F991FAA1FBB1F1A95D1F7480F591F6A1F7B1F440F551F661F39
:20474000771F4E0F511D611D711D483929E9520729E9620729E1720748F084E0E82A06C08E
:20476000EE3F31F4E3FC39C098E0E92AF990C0CFE53311F0E53189F529912D3219F4E0E1D8
:20478000EE2A05C02B3219F081E090E003C0299182E090E0E22FE053EA3018F0C81BD90B89
:2047A0001CC020E030E0FCE020383F075CF4C901880F991F880F991F280F391F220F331FC9
:2047C0002E0F311DE991E053EA3068F3E4FE03C0309521953F4F820E931ECE2CDD24E1FE63
:2047E00007C0A114B10421F02197F501D183C083CB01BA010E9417F27B018C01F3E0CF2233
:20480000DD2423E0C216D10421F417FB109517F9109557016801C801B70120E030E040E0F4
:2048200050E00E9477F1882309F44AC097FE0DC02DE9E22E25E4F22E9094819491089394E2
:20484000C0E2D0E000E010E012C095EBE92E95E4F92EF6CFF7012591359145915491C60172
:20486000B5010E9457F45B016C018C1A9D0A8C169D0684F7D595C7950F5F1F4F06301105D1
:2048800029F08CEF9FEFE80EF91EF1CFC501D6017C018D018C2D880F8D2D881F8F3F51F0C1
:2048A000C601B50120E030E040E050E00E9477F1882331F482E290E090934B1480934A147A
:2048C0007E2D9F2D802F612F272F392F482F562FB901CA01CDB7DEB7ECE00C94E7F52F92C1
:2048E0003F925F926F927F928F929F92AF92BF92CF92DF92EF92FF920F931F93CF93DF93F4
:204900008C011B01EA016115710519F0FB0191838083209749F0CE010297839728F020E071
:2049200030E040E050E0F6C0F801A1908F018A2D90E00E94B2F5892BB9F7FDE2AF1631F40A
:20494000F801A1908F015524539407C0FBE2AF1619F4F801A1908F015524209719F0C031E3
:20496000D105C1F4F0E3AF1679F4F8018081883711F0883549F4F801A1800E5F1F4FF2E02C
:204980005F2AC0E1D0E006C0209721F480E3A816E9F427C0C830D10531F1C930D10524F4EF
:2049A000C230D10531F50CC0CA30D10589F0C031D105F9F4C12CD12CE12CB8E0FB2E28C0A0
:2049C000C12CD12CE12CA0E4FA2E22C0CAE0D0E0FCECCF2EFCECDF2EFCECEF2EFCE0FF2E10
:2049E00017C0C8E0D0E0C12CD12CE12CE0E1FE2E0FC09E01442737FD4095542F60E070E0AF
:204A000080E090E80E946FF5C901DA016C017D0120E030E040E050E060E03E01882477FC2A
:204A20008094982C70EDB72EBA0CE9E0EB1570F48A2D81548A3118F499ECB92E06C08A2D2D
:204A400081568A3150F589EAB82EBA0C8B2D90E08C179D0714F56F3FE1F0C216D306E406CE
:204A6000F506B0F0CA01B901A40193010E9429F59B01AC012B0D311D411D511D2130F0E061
:204A80003F07F0E04F07F0E85F0710F461E001C06FEFF801A1908F01C5CF2114310481F0DF
:204AA000662331F001501040F1011183008308C051FE1AC002501040F1011183008314C032
:204AC00067FF12C050FC05C02FEF3FEF4FEF5FE704C020E030E040E050E882E290E090939A
:204AE0004B1480934A1416C050FE08C050954095309521953F4F4F4F5F4F0CC057FF0AC0FF
:204B000082E290E090934B1480934A142FEF3FEF4FEF5FE7B901CA01DF91CF911F910F9159
:204B2000FF90EF90DF90CF90BF90AF909F908F907F906F905F903F902F900895FB01DC01BC
:204B400005900D920020E1F70895FC0105900020E9F7809590958E0F9F1F0895FB01DC01EF
:204B60004150504088F08D9181341CF08B350CF4805E659161341CF06B350CF4605E861B89
:204B8000611171F3990B0895881BFCCFFB01DC014150504048F005900D920020C9F701C089
:204BA0001D9241505040E0F70895FB0155915523A9F0BF01DC014D9145174111E1F759F470
:204BC000CD010590002049F04D9140154111C9F3FB014111EFCF81E090E001970895FB01CA
:204BE000DC0104C08D910190801921F441505040C8F7881B990B0895FB01DC0102C00190C7
:204C00000D9241505040D8F70895FB01DC010D900020E9F7119701900D920020E1F7089585
:204C2000FC018191861721F08823D9F7992708953197CF010895FB01DC0101900D92002081
:204C4000E1F70895FB01DC014150504030F08D910190801919F40020B9F7881B990B0895BC
:204C6000FB01DC014150504048F001900D920020C9F701C01D9241505040E0F70895AEE05F
:204C8000B0E0E5E4F6E20C94D3F50D891E898EE08C831A8309838FEF9FE79E838D839E01C4
:204CA000275E3F4FCE0101966F89788DA9010E9463262F813885020F131FF80110822E96AA
:204CC000E4E00C94EFF5ABE0B0E0E9E6F6E20C94C5F53C012B015A01FC011782168283817A
:204CE00081FD03C06FEF7FEFC6C19AE0892E1E010894211C311CF3012381F20123FD8591E9
:204D000023FF81912F01882309F4B2C1853239F423FD859123FF81912F01853229F490E052
:204D2000B3010E945628E7CF982FFF24EE249924FFE1FF15D0F09B3269F09C3228F49032AA
:204D400059F0933291F40EC09D3249F0903369F441E024C052E0F52A84E0F82A28C098E08E
:204D6000F92A25C0E0E1FE2A22C0F7FC29C0892F80538A3070F4F6FE05C0989C902C1124FD
:204D8000980E15C0E89CE02C1124E80EF0E2FF2A0EC09E3229F4F6FC6BC140E4F42A07C000
:204DA0009C3619F450E8F52A02C0983649F4F20123FD959123FF91912F01992309F0B8CF07
:204DC000892F8554833018F08052833038F444E050E0A40EB51E5FE359830FC0933631F026
:204DE000933779F0933509F056C020C0F5018081898342E050E0A40EB51E610101E010E0BC
:204E000012C0F501C080D180F6FC03C06FEF7FEF02C0692D70E042E050E0A40EB51EC60172
:204E20000E944B288C015FE7F52214C0F501C080D180F6FC03C06FEF7FEF02C0692D70E0EF
:204E400042E050E0A40EB51EC6010E9440288C0150E8F52AF3FE07C01AC080E290E0B301AE
:204E60000E945628EA948E2D90E008171907A8F30EC0F601F7FC8591F7FE81916F0190E0DA
:204E8000B3010E945628E110EA94015010400115110579F7EAC0943611F0993669F5F7FEFB
:204EA00008C0F501208131814281538184E090E00AC0F501808191819C01442737FD409592
:204EC000542F82E090E0A80EB91E9FE6F92257FF09C050954095309521953F4F4F4F5F4F22
:204EE000E0E8FE2ACA01B901A1012AE030E00E948228D82ED21840C0953729F41F2D1F7E73
:204F00002AE030E01DC01F2D197F9F3661F0903720F4983509F0ACC00FC0903739F09837F5
:204F200009F0A6C004C028E030E00AC0106114FD146020E130E004C014FD166020E132E007
:204F400017FF08C0F501608171818281938144E050E008C0F50180819181BC0180E090E0E1
:204F600042E050E0A40EB51EA1010E948228D82ED2188FE7F82EF122F6FE0BC05EEFF522AA
:204F8000D91438F4F4FE07C0F2FC05C08FEEF82202C01D2D01C0192DF4FE0DC0FE01ED0D2A
:204FA000F11D8081803319F499EEF92208C01F5FF2FE05C003C08F2D867809F01F5F0F2D55
:204FC000F3FC14C0F0FE0FC01E1510F09D2C0BC09D2C9E0C911A1E2D06C080E290E0B301D5
:204FE0000E9456281F5F1E15C0F304C01E1510F4E11A01C0EE2404FF0FC080E390E0B3010B
:205000000E94562802FF1DC001FD03C088E790E00EC088E590E00BC0802F867891F001FF4E
:2050200002C08BE201C080E2F7FC8DE290E0B3010E94562806C080E390E0B3010E9456280B
:205040009A94D914C0F3DA94F101ED0DF11D808190E0B3010E945628DD20A9F706C080E210
:2050600090E0B3010E945628EA94EE20C1F743CEF30166817781CB012B96E2E10C94E1F5FE
:20508000FC010590615070400110D8F7809590958E0F9F1F0895FC0161507040019001100B
:2050A000D8F7809590958E0F9F1F08950F931F93CF93DF938C01EB018B8181FF1BC082FF66
:2050C0000DC02E813F818C819D812817390764F4E881F9810193F983E88306C0E885F98583
:2050E000802F0995892B31F48E819F8101969F838E8302C00FEF1FEFC801DF91CF911F917A
:205100000F910895FA01AA27283051F1203181F1E8946F936E7F6E5F7F4F8F4F9F4FAF4F59
:20512000B1E03ED0B4E03CD0670F781F891F9A1FA11D680F791F8A1F911DA11D6A0F711DD9
:20514000811D911DA11D20D009F468943F912AE0269F11243019305D3193DEF6CF010895AD
:20516000462F4770405D4193B3E00FD0C9F7F6CF462F4F70405D4A3318F0495D31FD4052DF
:20518000419302D0A9F7EACFB4E0A6959795879577956795BA95C9F70097610571050895D2
:2051A0009B01AC010A2E06945795479537952795BA95C9F7620F731F841F951FA01D0895C1
:2051C000FC01128213820895FC018381882311F081E082830895FC01828181111282089599
:2051E000CF93DF93DC01FC01EB55FE4F808191810097C9F1019791838083ED01CC5ADF4F1F
:20520000FD01ED58FF4F8BE1019009928150E1F7FD01EE5AFF4FAF58BF4F8D919C91119720
:20522000A157B04091838083FD01ED58FF4F20E030E0AD014B555E4F10C02F5F3F4FEF01F7
:20524000DF015F968BE10D9009928150E1F7858D968D329791838083B196DA018D919C91AA
:205260002817390750F3DF91CF910895FC0183E993E0918380838781882321F0CF010496DE
:205280000E94DD7F0895CF92DF92EF92FF920F931F93DF93CF93CDB7DEB76F970FB6F894F7
:2052A000DEBF0FBECDBF8C016B01095A1F4FD8018C9107551040882321F42FE2E22EF12C8E
:2052C00003C090E5E92EF12CE00EF11E83E993E09A8389831C821B8218861D82B7016C5F62
:2052E0007F4FCE010596A60121E00E94EB86882391F5E3EEF0E0949108C08091C00085FFA7
:20530000FCCF9093C600319694919923B1F7E9EEF0E0949108C08091C00085FFFCCF9093B2
:20532000C600319694919923B1F709C08091C00085FFFCCF0894C11CD11C9093C600F60128
:205340009081992399F78091C00085FFFCCF8AE08093C6005AC0F801EB55FE4F208131819A
:205360002A30310508F040C02F5F3F4F3183208321503040F90185E0EE0FFF1F8A95E1F7E0
:20538000E21BF30BED58FF4FE00FF11F13C0AF01415E5F4FBF018BE1DB010D90BD01DA0172
:2053A0000D92AD018150C1F7929182913296968F858F7F9721503040BFEF2E3F3B0739F75C
:2053C000D801AD58BF4FF70134968BE101900D928150E1F70F581F4FF70182819381D8011D
:2053E0008D939C9301571040D801AC5ABF4FFE0135968BE101900D928150E1F70E5A1F4FE4
:205400008B819C81F80191838083CE0101960E9436296F960FB6F894DEBF0FBECDBFCF9140
:20542000DF911F910F91FF90EF90DF90CF900895EF92FF920F931F938C013EECE32E31E0F4
:20544000F32EE80EF91EC7010E948F7FC7010E94DD7FF801108211821F910F91FF90EF9064
:205460000895CF92DF92EF92FF920F931F93CF93DF937C016B01DB010D900020E9F78D0193
:2054800001501040061B170BEEECF1E0EE0EFF1ED7011C92E2E3FEEFEE0EFF1ECB016EE4F5
:2054A00070E00E941026EC01009731F4F8013197EC0DFD1D86010EC060E270E00E94102688
:2054C0008C010F5F1F4FCE016AE270E00E941026FC0131978DE081838AE082831382C7011E
:2054E00086539E4FB8010E94ED878EEC91E0E80EF91ED7018C91882319F1E3E1F1E09491BB
:2055000008C08091C00085FFFCCF9093C600319694919923B1F7EAE1F1E0949108C08091D0
:20552000C00085FFFCCF9093C600319694919923B1F78091C00085FFFCCF8AE08093C600C0
:20554000DF91CF911F910F91FF90EF90DF90CF900895CF93DF93EC018B81882309F43BC042
:20556000E2E4F1E0949108C08091C00085FFFCCF9093C600319694919923B1F7CD57DD4FFE
:20558000488159816A817B81C358D2408EE394E02AE030E00E949D40E0E4F1E0949108C054
:2055A0008091C00085FFFCCF9093C600319694919923B1F7C558DD4F488159816A817B81BF
:2055C0008EE394E02AE030E00E949D408091C00085FFFCCF12C0E0E3F1E0949108C08091C9
:2055E000C00085FFFCCF9093C600319694919923B1F78091C00085FFFCCF8AE08093C60000
:20560000DF91CF9108952F923F924F925F926F927F928F929F92AF92BF92CF92DF92EF9270
:20562000FF920F931F93DF93CF93CDB7DEB7AC970FB6F894DEBF0FBECDBF5C014B01FC0168
:205640008381882309F438C1C50182539E4F0E94DD7FF50112821A8A1D8A198A188A83E999
:2056600093E09F878E875EE4C52ED12CCA0CDB1C2FE230E0A20EB31EF601B182A08221ED81
:205680003FEFA20EB31EF40180818F3209F090C0C4016FE270E00E9410267C010894E11C07
:2056A000F11C3E010894611C711C260142E1242E312C2C0E3D1E77C0C7016FE270E00E9428
:2056C00010266C01009709F481C0E816F90608F07DC08C010E191F09C301B701A8010E947D
:2056E0003026060D171DF8011082F30107C08091C00085FFFCCF31969093C600908199232A
:20570000B1F78091C00085FFFCCFFAE0F093C600F201608171816115710519F460E070E04F
:2057200002C06C5F7F4FC101A30121E00E94EB86882371F5EEE7F1E0949108C08091C0001F
:2057400085FFFCCF9093C600319694919923B1F7FE01319607C08091C00085FFFCCF31964D
:205760009093C60090819923B1F7ECE7F1E0949108C08091C00085FFFCCF9093C60031966A
:2057800094919923B1F78091C00085FFFCCF8DC02EE030E02C0F3D1FF2013183208376019D
:2057A0000894E11CF11CE114F10409F085CF0BC080E590E0A80EB91EF601B182A08220EB88
:2057C0003FEFA20EB31ED82C092D02C0DE2C0F2D8EE490E0A80EB91EF5018081918122EB53
:2057E0003FEFA20EB31E009719F480E090E001C004966D2D702F0E94BD87882339F1EEE663
:20580000F1E0949108C08091C00085FFFCCF9093C600319694919923B1F78D2D902F9C015B
:20582000F90107C08091C00085FFFCCF31969093C60090819923B1F783E892E0A80EB91EF8
:20584000F501108211821282138232C0E6E5F1E0949108C08091C00085FFFCCF9093C60080
:20586000319694919923B1F78D2D902F9C01F90107C08091C00085FFFCCF31969093C60031
:2058800090819923B1F7E4E5F1E0949108C08091C00085FFFCCF9093C6003196949199235B
:2058A000B1F78091C00085FFFCCF8AE08093C600CE010E960E943629AC960FB6F894DEBF39
:2058C0000FBECDBFCF91DF911F910F91FF90EF90DF90CF90BF90AF909F908F907F906F9089
:2058E0005F904F903F902F900895BF92CF92DF92EF92FF920F931F93CF93DF938C01EB01D9
:205900008FE28993EE24E394FF2475EAC72E71E0D72EC00ED11E6FE1B62E14C0FB9CC00187
:2059200011248D589F4F800F911FBE010E94EF7F02C02196E3948881882319F08CE88E158D
:20594000C0F7F3942F2D30E0F601808191812817390720F3E7FC07C0C80182539E4FBE010D
:205960000E94EF7F01C01882DF91CF911F910F91FF90EF90DF90CF90BF9008952F923F9242
:205980004F925F926F927F928F929F92AF92BF92CF92DF92EF92FF920F931F93DF93CF9333
:2059A000CDB7DEB7AD970FB6F894DEBF0FBECDBF6C014B014DA7DC0113968C91882309F44B
:2059C0004AC3E1EDF1E0CE0EDF1ED6018C91EFE2FEEFCE0EDF1E882309F419C1222309F0F7
:2059E000E1C029EE31E0C20ED31ED6018C91E7E1FEEFCE0EDF1E882371F1E3E1F1E09491D4
:205A000008C08091C00085FFFCCF9093C600319694919923B1F7E6E5F2E0949108C08091CA
:205A2000C00085FFFCCF9093C600319694919923B1F78EE394E061E070E04AE050E00E94AC
:205A4000F1408091C00085FFFCCF8AE08093C6000E94444300C3E3EEF0E0949108C0809127
:205A6000C00085FFFCCF9093C600319694919923B1F7EDE3F2E0949108C08091C00085FFFA
:205A8000FCCF9093C600319694919923B1F7F40107C08091C00085FFFCCF31969093C60076
:205AA00090819923B1F7E2E3F2E0949108C08091C00085FFFCCF9093C6003196949199233C
:205AC000B1F7C6012EEE31E0C20ED31EB6010E94752C4BEF5FEFC40ED51ED6019C91E7E156
:205AE000FEEFCE0EDF1E8DE8989FF0011124E251FE4FEC0DFD1D07C08091C00085FFFCCF94
:205B000031969093C60090819923B1F7ECE2F2E0949108C08091C00085FFFCCF9093C600CA
:205B2000319694919923B1F723E832E0C20ED31ED6014D915D916D917C91EDE7FDEFCE0EED
:205B4000DF1E8EE394E02AE030E00E949D408091C00085FFFCCF8AE08093C600A601475128
:205B60005E4FDA012C91E22FF0E0EE0FFF1FEE0FFF1FEC0DFD1DE651FE4F83E892E0C80E7F
:205B8000D91ED6014D905D906D907C908DE79DEFC80ED91E40825182628273822F5FDA01C0
:205BA0002C932FC0E3EEF0E0949108C08091C00085FFFCCF9093C600319694919923B1F750
:205BC000EBE1F2E0949108C08091C00085FFFCCF9093C600319694919923B1F7F40107C025
:205BE0008091C00085FFFCCF31969093C60090819923B1F78091C00085FFFCCF8AE08093C3
:205C0000C600C60182539E4F0E94DD7F39C0E9EEF1E0CE0EDF1ED6011C92E7E1FEEFCE0EA7
:205C2000DF1EE3EEF0E0949108C08091C00085FFFCCF9093C600319694919923B1F7EAE0B6
:205C4000F2E0949108C08091C00085FFFCCF9093C600319694919923B1F7F40107C080915F
:205C6000C00085FFFCCF31969093C60090819923B1F78091C00085FFFCCF8AE08093C6008D
:205C8000D60112961C921A8A1D8A198A188A83E993E09F878E87FEE4AF2EB12CAC0CBD1C00
:205CA000EFE2F0E0CE0EDF1ED501CD92DC92E1EDFFEFCE0EDF1ED4018C918F3209F090C036
:205CC000C4016FE270E00E9410267C010894E11CF11C3E010894611C711C2501E2E12E2E39
:205CE000312C2C0E3D1E77C0C7016FE270E00E9410265C01009709F481C0E816F90608F013
:205D00007DC08C010E191F09C301B701A8010E943026060D171DF8011082F30107C08091AF
:205D2000C00085FFFCCF31969093C60090819923B1F78091C00085FFFCCFFAE0F093C600EC
:205D4000D2016D917C916115710519F460E070E002C06C5F7F4FC101A30121E00E94EB8607
:205D6000882371F5E6EFF1E0949108C08091C00085FFFCCF9093C600319694919923B1F726
:205D8000FE01319607C08091C00085FFFCCF31969093C60090819923B1F7E4EFF1E0949168
:205DA00008C08091C00085FFFCCF9093C600319694919923B1F78091C00085FFFCCF1BC1C6
:205DC0002EE030E02C0F3D1FF2013183208375010894E11CF11CE114F10409F085CF0BC0A6
:205DE00040E550E0C40ED51ED501CD92DC92E0EBFFEFCE0EDF1E082DF92C01C00E2DF60107
:205E0000E25BFF4F2DA5222309F4B1C0608171816115710519F460E070E002C06C5F7F4FBB
:205E2000C60182539E4F402F5F2D21E00E94EB86882309F46CC04FED51E0C40ED51ED601ED
:205E40004D915D916D917C91ECE9F0E0CE0EDF1ED6014D935D936D937C931397E5E8FDEFD4
:205E6000CE0EDF1EE6EEF1E0949108C08091C00085FFFCCF9093C600319694919923B1F75E
:205E8000802F9F2D9C01F90107C08091C00085FFFCCF31969093C60090819923B1F7EEED09
:205EA000F1E0949108C08091C00085FFFCCF9093C600319694919923B1F78EE394E02AE0DC
:205EC00030E00E949D408091C00085FFFCCF8AE08093C60023E832E0C20ED31ED6011D926C
:205EE0001D921D921C921397E0EDF1E0949108C08091C00085FFFCCF9093C600319694916C
:205F00009923B1F78091C00085FFFCCF99C0ECEBF1E0949108C08091C00085FFFCCF9093CC
:205F2000C600319694919923B1F7802F9F2D9C01F90107C08091C00085FFFCCF3196909368
:205F4000C60090819923B1F7EAEBF1E0949108C08091C00085FFFCCF9093C600319694917E
:205F60009923B1F78091C00085FFFCCF44C0608171816115710519F460E070E002C06C5FB0
:205F80007F4FC60182539E4F402F5F2D26E50E94EB86882309F033C0E6EAF1E0949108C06C
:205FA0008091C00085FFFCCF9093C600319694919923B1F7802F9F2D9C01F90107C080919E
:205FC000C00085FFFCCF31969093C60090819923B1F7E4EAF1E0949108C08091C00085FFAC
:205FE000FCCF9093C600319694919923B1F78091C00085FFFCCF8AE08093C60028C081E0F1
:20600000F6018083E2E9F1E0949108C08091C00085FFFCCF9093C600319694919923B1F7A4
:20602000F40107C08091C00085FFFCCF31969093C60090819923B1F78091C00085FFFCCF3F
:206040008AE08093C600802F9F2D0E94A8DBCE010E960E943629AD960FB6F894DEBF0FBEEB
:20606000CDBFCF91DF911F910F91FF90EF90DF90CF90BF90AF909F908F907F906F905F90BF
:206080004F903F902F900895EF92FF920F931F93CF93DF93EC010E94A18D8E0107511E4FAB
:2060A000D8018C919EECE92E91E0F92EEC0EFD1E8823A1F1C7010E94DD7FF801608161500E
:2060C00060838DE8689FB001112462517E4F6C0F7D1FCE0141E021E00E94BE2CD801EC9111
:2060E000F0E0EE0FFF1FEE0FFF1FEC0FFD1FE651FE4F4081518162817381CD57DD4F48837A
:2061000059836A837B83C358D240C7010E94C57E8B81882389F181E08A832EC00E947E8DA4
:20612000C7010E94DD7F1A8287ED90E00E94446480914A09882301F110924A0980910207BF
:20614000C82FD0E0CC0FDD1FC657DF4E68817981882777FD8095982F0E9419F22091D50260
:206160003091D6024091D7025091D8020E9485F3181614F419821882DF91CF911F910F917C
:20618000FF90EF900895FC0181E08183CF0140E021E00E94BE2C0895EF92FF920F931F9372
:2061A000CF93DF938C01FC01138286A9882321F0C801C3960E94DD7F27EAE22E21E0F22E9F
:2061C000E00EF11EC70160E04DE10E94837D882309F5E3EEF0E0949108C08091C00085FF5E
:2061E000FCCF9093C600319694919923B1F7E7ECF2E0949108C08091C00085FFFCCF9093C6
:20620000C600319694919923B1F78091C00085FFFCCF7DC0E801C455DE4FCE01B70141E034
:206220000E948288882341F5CE01B70140E00E948288882309F5E3E1F1E0949108C0809142
:20624000C00085FFFCCF9093C600319694919923B1F7E4EBF2E0949108C08091C00085FF13
:20626000FCCF9093C600319694919923B1F78091C00085FFFCCF4BC0C801C396BE010E946C
:20628000DE82882309F5E3E1F1E0949108C08091C00085FFFCCF9093C600319694919923C2
:2062A000B1F7E4EAF2E0949108C08091C00085FFFCCF9093C600319694919923B1F780913F
:2062C000C00085FFFCCF23C081E0F8018383E3EEF0E0949108C08091C00085FFFCCF90939B
:2062E000C600319694919923B1F7E9E9F2E0949108C08091C00085FFFCCF9093C600319627
:2063000094919923B1F78091C00085FFFCCF8AE08093C600D801AC5ABF4FF801F3968BE1B6
:2063200001900D928150E1F7F80181A992A90E5A1F4FF8019183808302551040C8018F96AB
:20634000025B1F4FF80191838083DF91CF911F910F91FF90EF9008952F923F924F925F9233
:206360006F927F929F92AF92BF92CF92DF92EF92FF920F931F93DF93CF93CDB7DEB7CC5502
:20638000D0400FB6F894DEBF0FBECDBF6C01662311F527E832E0C20ED31ED6018C91E9E704
:2063A000FDEFCE0EDF1E882309F4E6C02FE732E0C20ED31ED601ED90FD900D911C91E1E8EC
:2063C000FDEFCE0EDF1E0E942CEBE616F7060807190708F4D1C027E832E0C20ED31ED601D1
:2063E0001C92E9E7FDEFCE0EDF1ED60113968C91882341F4C6010E94CC30F60183818823D2
:2064000009F4BAC000D000D000D0EDB7FEB731967E010894E11CF11CADB7BEB71296FC9241
:20642000EE9211978AE091E093838283D6019D968D919C919E97958384830E943F26870106
:20644000EDB7FEB736960FB6F894FEBF0FBEEDBF57010AC0D8018C91992787FD90950E946D
:20646000BAF5F80181938F01F50101900020E9F73197EA19FB09802F8E198E175CF363E3EA
:20648000A62EB12CAC0CBD1CC50140E050E060E070E00E94C57E99245DE3E52EF12CEC0E08
:2064A000FD1E2E010894411C511C4FE1642E712C6C0E7D1E33E0232E31E0332E43C0D80106
:2064C0008C9190E00E94BAF5F80181938F01D7010D900020E9F71197AE19BF09802F8E193F
:2064E0008A176CF327968FAD27978E3759F1C701B20145E050E00E942226009719F500D0A7
:2065000000D000D0EDB7FEB73196ADB7BEB712967C926E92119733822282558244820E94EC
:206520003F26EDB7FEB736960FB6F894FEBF0FBEEDBFC3010E94BD648FEF90E00E9444648B
:2065400099249394C501B70140E050E00E94FA81181614F48701BBCF992041F48FEF9FEF2A
:20656000D6019E969C938E939D9706C0F60185A596A5019696A785A7C45ADF4F0FB6F894CD
:20658000DEBF0FBECDBFCF91DF911F910F91FF90EF90DF90CF90BF90AF909F907F906F903E
:2065A0005F904F903F902F9008952F923F924F925F926F927F928F929F92AF92BF92CF9227
:2065C000DF92EF92FF920F931F93DF93CF93CDB7DEB7CF58D0400FB6F894DEBF0FBECDBF79
:2065E0008C013B016A0184E090E0C80ED91EF8017196C757DF4FF983E883C958D040C80199
:206600000496CA57DF4F99838883C658D040C857DF4F1882C858D040B6E6EB2EF12CEC0E59
:20662000FD1EF7013B96C557DF4FF983E883CB58D040A8E88A2EA2E09A2E800E911EFAE861
:20664000AF2EF2E0BF2EA00EB11EEEE02E2E312C2C0E3D1E77E4472E512C4C0E5D1EC20120
:206660000496C357DF4F99838883CD58D040E3EEF0E09491C157DF4F9883CF58D0404FC16E
:20668000F7018385482F50E0BA01687170706031710509F052C1F4012081318121303105FD
:2066A00009F44BC12230310509F447C1F701DE0111969081903239F08E2F8E19883011F4A9
:2066C0008EE28D939D933196C557DF4F88819981CB58D040E817F90761F71C921E86F301F6
:2066E0008081882329F4C10160E071E00E940526C101B3010E940526C101BE016F5F7F4F51
:206700000E940526C10160E071E00E9405261CA61FA61BA61AA683E993E099A788A7CE0167
:206720008C96B601AE014F5F5F4F21E00E94EB86882309F03FC0F40180819181892BD1F53C
:20674000C157DF4F9881CF58D040E3EEF0E008C08091C00085FFFCCF9093C6003196949145
:206760009923B1F7E2E0F1E007C08091C00085FFFCCF31969093C60090819923B1F7809105
:20678000C00085FFFCCFFAE0F093C600FE01319607C08091C00085FFFCCF31969093C6006A
:2067A00090819923B1F78091C00085FFFCCF8AE08093C600C357DF4FA881B981CD58D04021
:2067C000FE01BC968BE101900D928150E1F78AA59BA5F2019383828383E993E091838083B0
:2067E000C801B101A2010E94D532C2010E943629CE0188960E94362992C0953E09F48FC0AF
:206800009E3209F48CC09F3509F489C0F8019189992331F09E3209F482C09F3509F47FC036
:2068200043FD7DC080E06031710509F481E0F80184A7882349F4F7018085873409F06FC02A
:2068400081858E3709F46BC0CA57DF4FA881B981C658D040F7018081803241F08E2F8E1925
:20686000883011F48EE28D9380818D933196C557DF4F88819981CB58D040E817F90759F7F4
:206880001C92F40180819181009729F5F30107C08091C00085FFFCCF31969093C6009081F1
:2068A0009923B1F7CA57DF4FE881F981C658D04007C08091C00085FFFCCF31969093C6007D
:2068C00090819923B1F78091C00085FFFCCFFAE0F093C60024C08130910539F4F5018081B1
:2068E00091810196918380831AC00297C1F4C857DF4FF881C858D0402F2F30E0F501808155
:20690000918128173907F1F0C857DF4FF881C858D040FF5FC857DF4FF883C858D040C601F2
:20692000B701C757DF4F48815981C958D0400E94FA8118160CF4A4CE05C0F7019081992338
